:020000040800F2
:10000000400400209D0100088B0E0008590D0008D7
:10001000890E0008D5020008191100080000000030
:100020000000000000000000000000008F0E00082B
:10003000A1040008000000008D0E00083D1000081B
:10004000B7010008B7010008B7010008B7010008B0
:10005000B7010008B7010008B7010008B7010008A0
:10006000D1040008B7010008B7010008B701000873
:10007000B7010008B7010008B7010008B701000880
:10008000B7010008B7010008B7010008B701000870
:10009000B7010008B7010008B7010008B701000860
:1000A000B7010008B7010008B7010008B701000850
:1000B000B7010008B7010008B7010008B701000840
:1000C000B7010008B7010008B7010008B701000830
:1000D000B7010008B7010008B7010008B701000820
:1000E000B9040008B7010008B7010008B70100080B
:1000F000B7010008B7010008B7010008B701000800
:10010000B7010008B7010008B7010008B7010008EF
:10011000B7010008B7010008B7010008B7010008DF
:10012000B7010008B7010008B7010008B7010008CF
:10013000B7010008B7010008B7010008B7010008BF
:10014000B7010008B7010008B7010008B7010008AF
:10015000B7010008B7010008B7010008B70100089F
:10016000B7010008B7010008B7010008B70100088F
:10017000B7010008B7010008B7010008000000003F
:10018000B7010008B7010008DFF80CD000F090F8C4
:10019000004800471D13000840040020064880471F
:1001A00006480047FEE7FEE7FEE7FEE7FEE7FEE75C
:1001B000FEE7FEE7FEE7FEE7B11000088901000850
:1001C0002DE9F05F0546002092469B46884606468C
:1001D000814640241BE0284641464746224600F01F
:1001E00057F853465A46C01A914110D31146184643
:1001F000224600F03EF82D1A67EB01084F462246D2
:100200000120002100F035F817EB00094E41201EB7
:10021000A4F10104DFDC484631462A464346BDE8E6
:10022000F09FD2B201E000F8012B491EFBD27047CB
:100230000022F6E710B513460A4604461946FFF7B2
:10024000F0FF204610BD30B50B46014600202022AD
:10025000012409E021FA02F59D4205D303FA02F5D3
:10026000491B04FA02F52844151EA2F10102F1DC33
:1002700030BD202A04DB203A00FA02F1002070474A
:100280009140C2F1200320FA03F3194390407047D4
:10029000202A04DB203A21FA02F00021704721FADB
:1002A00002F3D040C2F12002914008431946704742
:1002B000064C074D06E0E06840F0010394E80700B3
:1002C00098471034AC42F6D3FFF762FF4C13000896
:1002D0006C130008FEE700002DE9F0474C4C074680
:1002E0004FF0040A032801D184F800A000F018F9A7
:1002F0000546207800264FF0010850B14FF0020962
:1003000001280FD0022848D0032854D0032F75D0DD
:1003100070E0002F6ED1454684F8008000F000FEAA
:10032000656067E0012F1ED03AA000F009FF84F855
:10033000008000F02BFEA1683AA0491CA16000F0EB
:10034000FFFE6068012855D1A0686421484390FBF6
:10035000F5F105FB110008B9C4F8049034A06168F8
:1003600000F0EEFE46E0626835483649022A0AD1BE
:1003700002680B689A4206D384F8009032A000F01D
:10038000DFFE142636E000680968884232D3032075
:1003900020702FA000F0D4FE2CE0022F2AD12FA035
:1003A00000F0CEFE454684F8008000F071FD00208C
:1003B000C4E901501EE02DA000F0C2FEA06890FB31
:1003C000F5F105FB11006FF01801484305EB8000C3
:1003D0000A2190FBF1F129A000F0B2FEA06884F898
:1003E000009090FBF5F105FB11006FF018014843F8
:1003F00005EB80063046BDE8F087FFE724A000F05B
:100400009FFE84F800A000BF00F08AFDFCE700001A
:10041000080000205448524F554748205354415437
:10042000450A0000436F756E74203D2025640A0064
:10043000737461747573203D2025640A0000000008
:10044000140000201800002054696D6575700A00C2
:10045000676F20746F20574149540A00424C4F4344
:100460004B2053544154450A000000005741495461
:10047000205354415445200A00000000576169741C
:10048000202564207365636F6E64730A00000000AA
:100490004F55545F4F465F53455256494345000000
:1004A00070470000034A116813685B1A8342FBD34C
:1004B000704700001400002010B54FF4004000F019
:1004C00041F802490120086010BD0000040000202E
:1004D00010B5042000F036F801490120086010BD75
:1004E0000400002010B5002408210A4800F00EF98D
:1004F00001280BD0084900200A680AB102240860CC
:1005000006490A681AB10124086000E00324204665
:1005100010BD0000001002401C000020040000205C
:1005200010B51021054800F0F1F8012802D04FF471
:10053000167010BD4FF4966010BD00000010024010
:1005400070470000044910B50A68024202D00860F2
:10055000FFF7F6FF10BD0000143C01402DE9F84FF5
:10056000DFF87CB100224FF001084FF0030A4FF092
:100570000F090BF1040E00BF0B6808FA02F42340C8
:10058000A3426ED14D68022D01D0122D0ED1D50897
:1005900000EB850CDCF820505607F70E09FA07F639
:1005A000B5430E69BE402E43CCF820600668550066
:1005B0000F790AFA05FC07F0030726EA0C06AF409C
:1005C000374307604E68012E05D0022E03D0112E4E
:1005D00001D0122E0ED18668CF6826EA0C06AF40F5
:1005E000374387604668A6430C79C4F300149440EF
:1005F00034434460C6688C6826EA0C06AC40344339
:10060000C4604C68E40065D5364C256845F48045E7
:100610002560246822F0030504F480440094324CE1
:100620002E19D6F8084895072F0F09FA07F5AC439D
:100630002E4DA84201D1002524E02D4DA84201D124
:1006400001251FE02B4DA84201D102251AE02A4DB9
:10065000A84201D1032515E0284DA84202D1042566
:1006600010E037E0264DA84201D105250AE0254DCE
:10067000A84201D1062505E0234DA84201D1072556
:1006800000E00825BD402543C6F80858DBF80040C7
:100690005D464E689C43F60300D51C432C60DEF893
:1006A000004075464E689C43B60300D51C432C6041
:1006B0000B4D08352C684E689C43F60200D51C4350
:1006C0002C60074D0C352C684E689C43B60200D553
:1006D0001C432C60521C102AFFF44EAFBDE8F88F6B
:1006E000003C01404438024000300140000002401C
:1006F0000004024000080240000C024000100240CA
:100700000014024000180240001C0240006908402A
:1007100000D0012070470AB1816170470904FBE7EE
:100720000148806870470000280000200A486422C1
:10073000C168491C91FBF2F302FB1311C16000294F
:1007400008D10168491C016001684268914201D1E9
:100750000121816070470000140000200B4810B593
:10076000016841F400710160016841F48061016039
:10077000016841F480710160032000F06FF80020EF
:1007800000F006F800F024F8002010BD003C024004
:1007900070B50D4D04464FF47A712878B1FBF0F036
:1007A0000A490968B1FBF0F000F0C2FA48B9102C10
:1007B00007D200222146501E00F030F800206C6065
:1007C00070BD012070BD0000280000203400002012
:1007D0000A4808B5016841F480410160006800F4EE
:1007E000804000900548001F016841F08051016081
:1007F000006800F08050009008BD000044380240BE
:10080000002809DB00F01F0201219140400980000F
:1008100000F1E020C0F8001170470000F0B40E4B6A
:100820001B680C46C3F30223C3F10705042D00D94E
:100830000425191D072901D2002300E0DB1E012633
:1008400006FA05F1491E214099409E40761E164049
:100850003143F0BC00F084BC0CED00E0064900F030
:10086000070208684FF6FF03184040EA0220034AD7
:1008700010430860704700000CED00E00000FA052E
:100880002DE9F0470E46050065D0DFF81481D8F851
:100890000000F7B200F00F00B04207D288F80070F5
:1008A000D8F8000000F00F00B04254D128683D4C49
:1008B000810712D5400703D5206840F4E05020603E
:1008C0002878000703D5206840F460402060206845
:1008D000A96820F0F000084320602878C0072DD0D8
:1008E000304968680839012812D0022813D003283B
:1008F00011D00968890700292DDA216821F0030148
:1009000001432160FFF70CFF814641F2883A0EE077
:1009100009688903EFE709688901ECE7FFF700FF41
:10092000A0EB0901514502D90320BDE8F0872068FA
:10093000696800F00C00B0EB810FEFD1D8F800101F
:10094000404601F00F01B14207D90770006800F07E
:100950000F00B04201D00120E7E72878400705D515
:100960002068E96820F4E0500843206028780007F8
:1009700006D52068296920F4604040EAC100206063
:1009800000F016F82168084AC1F30311515CC84011
:10099000064908600020FFF7FBFE0020C5E70000C5
:1009A000003C0240083802403C130008340000209C
:1009B000154810B5006810F00C02144813D0144903
:1009C000042A0FD0082A0ED10F4C241F2268236856
:1009D00002F03F025B0207D52068C0F38810A0FB3D
:1009E000010106E0084610BD2168C1F38811A1FB92
:1009F00000010023FFF7E4FB2168C1F30141491C1A
:100A00004900B0FBF1F010BD083802400024F400AA
:100A100040787D012DE9F84F050076D02878DFF881
:100A2000F8B2BE4CC00749D0DBF800105846C1F3FD
:100A30008101012908D00068C0F3810002280AD191
:100A4000201D0068400206D52068800336D56868FE
:100A50000028E2D032E06868B0F5803F10D0B0F5F1
:100A6000A02F206810D020F480302060206820F46F
:100A7000802020606868A0B1FFF752FE06460CE0B7
:100A8000206840F48030F4E740F480202060F7E7ED
:100A9000FFF746FE801B642873D820688003F7D5D3
:100AA0000CE0FFF73DFE064605E000BFFFF738FE0D
:100AB000801B6428F0D820688003F7D42878DFF8FA
:100AC000608280074FF000093ED5DBF800105846E1
:100AD00011F00C0F09D00068C0F3810002280BD17F
:100AE0008D48001F0068400206D42068800715D595
:100AF000E868012809D111E0E868B8B10120C8F818
:100B00000000FFF70DFE064605E002E1FFF708FED4
:100B1000801B0228C0D820688007F7D52068296983
:100B200020F0F80040EAC10020600DE0C8F8009015
:100B3000FFF7F6FD064604E0FFF7F2FD801B0228F2
:100B40001FD820688007F7D42878000722D5724E76
:100B5000744869696C3671B101210160FFF7E0FDED
:100B6000074604E0FFF7DCFDC01B022809D8306807
:100B70008007F7D50EE0C0F80090FFF7D1FD0746DB
:100B800005E083E0FFF7CCFDC01B02287ED830686B
:100B90008007F7D42878400768D5DFF87CA10027C4
:100BA0000AF1380ADAF80000C0000BD4DAF80010B5
:100BB00041F08051CAF80010DAF80000012700F077
:100BC00080500090584E3068C00510D4306840F412
:100BD00080703060FFF7A4FD009005E0FFF7A0FDF6
:100BE0000099401A022851D83068C005F6D54A4EFF
:100BF000A868683601280FD00528306810D020F08A
:100C000001003060306820F004003060A868B8B19E
:100C1000FFF786FD00900FE0306840F00100F4E738
:100C200040F004003060F7E7FFF77AFD0099411AC1
:100C300041F28830814264D830688007F4D50EE0F4
:100C4000FFF76EFD009007E0FFF76AFD0099411A7B
:100C500041F28830814254D830688007F4D42FB1F3
:100C6000DAF8001021F08051CAF80010A869C0B36A
:100C7000DBF80010C1F3810102294AD0022848465E
:100C800007D0C8F86000FFF74BFD00E039E00546EB
:100C90003AE04746C8F86000FFF742FD064604E028
:100CA000FFF73EFD801B02282BD820688001F7D477
:100CB000D5E907010843A96A1C4A490802EB01412A
:100CC0006A6A41EA8211084395F82C1040EA0161F2
:100CD0001148001F016001203866FFF721FD05461D
:100CE00005E014E0FFF71CFD401B022809D820682E
:100CF0008001F7D50BE000BFFFF712FD401B022873
:100D000002D90320BDE8F88F20688001F4D40020C8
:100D1000F8E70120F6E700000838024000380240FA
:100D200000004742800E4742007000400000FFFF75
:100D300010B5401EB0F1807F01D3012010BD4FF0EF
:100D4000E02460610F21601700F00AFA0020A06122
:100D500007202061002010BDFEE700002DE9F047CC
:100D600086B014216846FFF763FA41480024016801
:100D700041F010010160016801F010010591016866
:100D800041F004010160016801F00401059101686E
:100D900041F002010160016801F002010591016862
:100DA00041F008010160016801F008010591016846
:100DB00041F0010101600068DFF8B88000F0010037
:100DC0000590002214214046FFF7A5FCDFF8A8900B
:100DD0004FF48046002231464846FFF79CFCDFF87E
:100DE0009CA04FF44057002239465046FFF793FC31
:100DF0003820CDE90004694621480294FFF7AEFB94
:100E0000142000900125CDE9015469464046039421
:100E1000FFF7A4FB48F2040000901A48CDE9010452
:100E200069464846FFF79AFB0096CDE901546946AA
:100E300048460394FFF792FB0097CDE901546946B9
:100E400050460394FFF78AFB002211460820FFF763
:100E5000E5FC0820FFF7D4FC002211462820FFF70C
:100E6000DDFC2820FFF7CCFC06B0BDE8F0870000D1
:100E7000303802400008024000040240000C0240EA
:100E80000010024000002110FEE7704770477047D5
:100E900010B51D4C002210212046FFF73CFC052018
:100EA000FFF700FB012204212046FFF734FC0A2053
:100EB000FFF7F8FA002204212046FFF72CFC05205A
:100EC000FFF7F0FA012291031048FFF724FC1420E9
:100ED000FFF7E8FA0E4C00224FF400512046FFF7CE
:100EE0001AFC0CA000F02CF90520FFF7DBFA012218
:100EF00011032046FFF70FFC00F010F9FFF7D2FABC
:100F000006496320086010BD00080240000402404A
:100F1000000C024057616C6B21210A000000002088
:100F200070B500224FF480411548FFF7F4FB154CD3
:100F3000002210212046FFF7EEFB134D0022A114E2
:100F40002846FFF7E8FB00224FF400512846FFF740
:100F5000E2FB002204212046FFF7DDFB01220421F1
:100F60002046FFF7D8FB0520FFF79CFA002204215A
:100F70002046FFF7D0FBBDE870400520FFF792BA8E
:100F80000004024000080240000C02402DE9F0413C
:100F9000204C21A0216800F0D3F8214E4FF4805757
:100FA000002239463046FFF7B6FB2068632816D189
:100FB0000025A846012239463046FFF7ACFB0A203F
:100FC000FFF770FA002239463046FFF7A4FB0A20EB
:100FD000FFF768FA6D1CC4F80080032DEADB11A04E
:100FE00000F0AEF8012251033046FFF794FB1420C5
:100FF000FFF758FA00224FF480410E48FFF78BFBB1
:101000000520FFF74FFABDE8F041012210210A4800
:10101000FFF781BB00000020783D25640A00000036
:10102000000C0240446F6E742057616C6B21210AE2
:10103000000000000004024000080240FFF776BBF9
:1010400010B592B030216846FFF7F2F814210CA8D1
:10105000FFF7EEF814480024016841F08051016068
:10106000006800F0805011901048016841F4804100
:1010700001600068069400F4804011900220009006
:1010800001200390102004906846FFF7C3FC0F2056
:10109000CDE90C040E940F9400210CA81094FFF7D6
:1010A000EFFB12B010BD000040380240007000405D
:1010B0001048016841F4700101600F48016841F077
:1010C000010101600C4A00210832116002680B4BDB
:1010D0001A400260031D0A4A1A60026822F4802244
:1010E000026005480C3001600249580680390860EA
:1010F0007047000088ED00E000380240FFFFF6FE78
:1011000010300024002803D002490A6810444860C7
:101110007047000014000020FEE7000010B52021F9
:101120000548FFF7F3FA0549012802D0642008605A
:1011300010BDC820FBE70000001002402400002082
:101140000FB4054B10B503A9044A029800F028F823
:1011500010BC5DF814FB0000F512000838000020F8
:101160000907090E002804DB00F1E02080F80014D4
:10117000704700F00F0000F1E02080F8141D704768
:1011800002E008C8121F08C1002AFAD17047704750
:10119000002001E001C1121F002AFBD170470000AE
:1011A0002DE9FF4F89B09B460446002506E025281F
:1011B0000BD05A460B999047641C6D1C2078002870
:1011C000F5D10DB02846BDE8F08F0027B8460122C2
:1011D000474900E0074314F8013F203B02FA03F0BF
:1011E0000842F7D120782E2819D114F8010F47F0C2
:1011F00004072A280ED06FF02F022078A0F13001CA
:1012000009290CD808EB880102EB410100EB010829
:10121000641CF2E70A98641C50F8048B0A9020784A
:101220000028CED0642808D0692806D075281ED0A2
:101230005A460B9990476D1C58E00A994FF00A09DD
:1012400001C90A91002802DA40422D2102E0390545
:1012500004D52B218DF82010012103E0F90704D0DB
:101260002021F7E78A4608AE0DE00021FAE70A9947
:101270004FF00A0901C90A91F7E74946FEF7E3FF73
:10128000303106F8011D0028F7D1ADEB060000F162
:101290002009780701D44FF00108C84502DDA8EB0A
:1012A000090000E000208046002706E008A85A4612
:1012B000C05D0B9990476D1C7F1C5745F6DB04E021
:1012C00030205A460B9990476D1CB8F10001A8F1E7
:1012D0000108F5DC05E016F8010B5A460B9990471A
:1012E0006D1CB9F10001A9F10109F4DC641C65E78A
:1012F0000928010008490968C90706D0064980394C
:101300000968CA074FF0604101D1704700BF0A6801
:10131000002AFBD008707047800E00E0FFF71EFA2D
:10132000FFF78EFEFFF71AFDFFF7DCF8FEF7D4FF9C
:10133000FFF7E8FE0120FFF7B5F8F5E70000000031
:101340000000000001020304060708096C130008EE
:10135000000000203C00000080110008A8130008D5
:101360003C00002004040000901100080000000070
:10137000000000000000000000000000000000006D
:10138000000000000000000000000000000000005D
:10139000000000000100000010000000000000003C
:0813A0000024F400000000002D
:040000050800018965
:00000001FF
